:100000000C942A000C9480010C94BF010C940A02F9
:100010000C943C000C943C000C943C000C94BC00F0
:100020000C943C000C943C000C943C000C943C0060
:100030000C943C000C943C000C943C000C943C0050
:100040000C943C000C943C000C943C000C943C0040
:100050000C943C0011241FBECFE5D8E0DEBFCDBF1D
:1000600010E0A0E6B0E001C01D92A636B107E1F7AE
:100070000E942B020C94C8020C940000DF93CF93D3
:10008000CDB7DEB7A4E3B0E0E4E3F0E080818F60B9
:100090008C93A5E3B0E0E5E3F0E08081807F8C9372
:1000A000CF91DF910895DF93CF93CDB7DEB7AAE369
:1000B000B0E0EAE3F0E080818F638C93ABE3B0E0E3
:1000C000EBE3F0E08081807C8C93CF91DF91089509
:1000D000DF93CF930F92CDB7DEB78983E2E5F0E0EF
:1000E0001082ECE5F0E089818083E3E5F0E08DE8C3
:1000F0008083E8E5F0E08081882F90E08270907046
:100100000097B9F3A8E5B0E0E8E5F0E0808182600F
:100110008C93E3E5F0E010820F90CF91DF9108958A
:10012000DF93CF9300D0CDB7DEB79A838983ECE419
:10013000F0E011821082EAE4F0E089819A819183F3
:100140008083EFE4F0E088E08083EEE4F0E08BE091
:100150008083A9E5B0E0E9E5F0E0808180618C93DF
:10016000AFE5B0E0EFE5F0E0808180688C930F9020
:100170000F90CF91DF9108951F920F920FB60F92BB
:1001800011248F93DF93CF93CDB7DEB780916200B8
:100190008530D9F5809163008930B9F5809164008C
:1001A000853099F580916500893079F51092650068
:1001B00010926400109263001092620080916000BF
:1001C000893089F480916100893069F4109265006A
:1001D000109264001092630010926200109261000D
:1001E000109260005BC080916100893041F41092F0
:1001F0006100809160008F5F809360004FC08091AC
:1002000061008F5F8093610049C0809164008530F8
:1002100039F580916500893019F5109265001092CA
:10022000640080916200853049F4809163008930D8
:1002300029F4109263001092620030C08091630034
:10024000893041F410926300809162008F5F809347
:10025000620024C0809163008F5F809363001EC0A2
:10026000809165008930A9F480916400853029F47B
:10027000109265001092640011C080916500893071
:1002800069F410926500809164008F5F8093640030
:1002900005C0809165008F5F80936500CF91DF91ED
:1002A0008F910F900FBE0F901F901895DF93CF93F3
:1002B000CDB7DEB7A1E3B0E0E1E3F0E080818B7F72
:1002C0008C93A2E3B0E0E2E3F0E0808184608C9361
:1002D000A5E5B0E0E5E5F0E0808182608C93ABE5D8
:1002E000B0E0EBE5F0E0808180648C93AFE5B0E0B6
:1002F000EFE5F0E0808180688C93CF91DF910895E5
:100300001F920F920FB60F921124DF93CF93CDB7A8
:10031000DEB7109265001092640010926300109294
:1003200062001092610010926000CF91DF910F90F7
:100330000FBE0F901F901895DF93CF93CDB7DEB708
:10034000A1E3B0E0E1E3F0E08081877F8C93A5E555
:10035000B0E0E5E5F0E080818C608C93ABE5B0E047
:10036000EBE5F0E0808180688C93AFE5B0E0EFE5ED
:10037000F0E0808180688C93CF91DF9108951F9287
:100380000F920FB60F9211248F93AF93BF93EF93F9
:10039000FF93DF93CF93CDB7DEB7AEE4B0E0EEE4EA
:1003A000F0E08081887F8C93CF91DF91FF91EF9176
:1003B000BF91AF918F910F900FBE0F901F90189526
:1003C000DF93CF93CDB7DEB7A7E3B0E0E7E3F0E08C
:1003D00080818B7F8C93A8E3B0E0E8E3F0E080813C
:1003E00084608C93A4E5B0E0E4E5F0E080818F7B4D
:1003F0008C93ABE5B0E0EBE5F0E0808180628C931C
:10040000AFE5B0E0EFE5F0E0808180688C93CF91BC
:10041000DF9108951F920F920FB60F9211248F93C0
:10042000AF93BF93EF93FF93DF93CF93CDB7DEB737
:10043000AEE4B0E0EEE4F0E0808183608C93CF9195
:10044000DF91FF91EF91BF91AF918F910F900FBE10
:100450000F901F901895DF93CF93CDB7DEB70E9412
:100460003E000E94530089E09DE30E9490000E949C
:1004700056010E949C010E94E001ABE3B0E0EBE377
:10048000F0E08081807C81608C93A5E3B0E0E5E3BF
:10049000F0E08081982F907F809165008F70892B8C
:1004A0008C9382E00E946800ABE3B0E0EBE3F0E005
:1004B0008081807C82608C93A5E3B0E0E5E3F0E08E
:1004C0008081982F907F809164008F70892B8C930E
:1004D00082E00E946800ABE3B0E0EBE3F0E08081F3
:1004E000807C84608C93A5E3B0E0E5E3F0E080815C
:1004F000982F907F809163008F70892B8C9382E07E
:100500000E946800ABE3B0E0EBE3F0E08081807C28
:1005100088608C93A5E3B0E0E5E3F0E08081982F5C
:10052000907F809162008F70892B8C9382E00E9473
:100530006800ABE3B0E0EBE3F0E08081807C8061B9
:100540008C93A5E3B0E0E5E3F0E08081982F907F05
:10055000809161008F70892B8C9382E00E946800EB
:10056000ABE3B0E0EBE3F0E08081807C80628C93D1
:10057000A5E3B0E0E5E3F0E08081982F907F8091E3
:1005800060008F70892B8C9382E00E94680075CF89
:04059000F894FFCF0D
:00000001FF
